:1000000021C03BC03AC039C038C037C036C035C047
:1000100034C033C032C031C030C02FC02EC02DC05C
:100020002CC02BC02BC029C028C027C026C025C08B
:1000300024C023C0DEC052C055C067C07CC090C081
:10004000ABC0BBC011241FBECFEFD2E0DEBFCDBF1F
:1000500012E0A0E0B1E0E8E7F4E002C005900D9204
:10006000A230B107D9F722E0A2E0B2E001C01D92B0
:10007000A831B207E1F7CCD0FDC1C2CF1F920F92D9
:100080000FB60F9211242F933F934F935F936F936B
:100090007F938F939F93EF93FF938091C000209164
:1000A000C60084FF05C0109209021092080216C013
:1000B0008091080290910902813032E0930718F094
:1000C0001092050296C04091050250E0483051055B
:1000D00008F08DC0FA01E65EFF4F099482E080933C
:1000E000050287C0211104C083E08093050281C00E
:1000F000213941F485E080930502109204021092A8
:10010000030277C01092050274C001969093090211
:1001100080930802409100025091010284179507D4
:1001200009F067C081E0809310022093120284E0FE
:10013000809305025EC001969093090280930802A5
:10014000E091100281E08E0F80931002F0E0EE5EED
:10015000FD4F2083863008F44CC01092050249C040
:10016000AC014F5F5F4F5093090240930802FC01BE
:10017000E55FFD4F20838091030290910402820F7E
:10018000911D90930402809303024530510589F537
:1001900086E0809305022DC030E0322F2227809127
:1001A000030290910402821B930B909304028093AC
:1001B000030287E0809305021CC0809103029091A6
:1001C0000402821B91099093040280930302892BFD
:1001D00059F480910B028F3739F480910C028F3FD4
:1001E00019F481E0809302021092050202C010927D
:1001F0000502FF91EF919F918F917F916F915F9198
:100200004F913F912F910F900FBE0F901F90189517
:1002100080E090E006D190930702809306029C0153
:10022000215031092115324020F49093010280932E
:1002300000028EE084B988E78AB98FE288B95C98B9
:1002400086B186958370823059F0833019F0813001
:10025000A9F40DC082E080930A028093110213C0BA
:1002600083E080930A0284E0809311020CC084E052
:1002700080930A0286E08093110205C082E0809399
:100280000A0280931102309B07C084B5806C84BD44
:1002900084B5806384BD06C084B5806884BD84B5A0
:1002A000806284BD84B5816084BD95B580910A0269
:1002B000892B85BD309B09C0E0E8F0E08081806C2F
:1002C000808380818063808308C0E0E8F0E08081E3
:1002D00080688083808180628083E0E8F0E08081B4
:1002E00081608083E1E8F0E0908180910A02892BAF
:1002F0008083309B09C0E0EBF0E08081806C8083DC
:1003000080818063808308C0E0EBF0E080818068BA
:100310008083808180628083E0EBF0E08081816077
:100320008083E1EBF0E0908180911102892B808342
:1003300080E98093C1008EE08093C20083E08093C7
:10034000C4007894C2E1D2E00F2EF4EBCF2ED12C72
:10035000F02D0F2EF8E8EF2EF12CF02D0AE810E02A
:10036000A3EBB0E08BE092E0339B10C02881F60154
:100370002083298128BD2A8127BD2B81F701208375
:100380002C81F80120832D812C9327C0E881F0E097
:10039000E050FF4F2081F6012083E981F0E0E0503A
:1003A000FF4F208128BDEA81F0E0E050FF4F20811F
:1003B00027BDEB81F0E0E050FF4F2081F701208363
:1003C000EC81F0E0E050FF4F2081F8012083ED81C7
:1003D000F0E0E050FF4F20812C9320910202222375
:1003E00019F210920202FC012281213009F0BCCFE7
:1003F000638170E0762F66272481622B7093070259
:10040000609306029B01215031092115324008F00A
:10041000ABCF709301026093000280E090E005D0C2
:100420009FCFA8E1B0E042E006C00196272F11D08F
:100430000FC0DC01862FE82FF999FECF12BC05C052
:10044000E1BDF89AE39500B40D924150C8F70895C4
:10045000262FF999FECF12BC81BDF89A815000B4C5
:10046000021639F01FBA20BD0FB6F894FA9AF99A1D
:080470000FBE0895F894FFCFC0
:100478000001010101010101010101010101010165
:100488000101010202020202020202020202020247
:10049800020202020202020202020203030303032F
:1004A800030303030303030303030404040404040E
:1004B80004040404040405050505050505050506E9
:1004C80006060606060606070707070707080808B8
:1004D80008080809090909090A0A0A0A0A0B0B0B7C
:1004E8000B0C0C0C0C0D0D0D0E0E0E0E0F0F0F102D
:1004F80010111111121212131314141515151616C2
:1005080017171818191A1A1B1B1C1C1D1E1E1F2032
:100518002021222323242526272728292A2B2C2D6E
:100528002E2F3031323334353738393A3C3D3E405E
:100538004142444547484A4C4D4F51535456585AE6
:100548005C5E60626467696B6D707275777A7D7FD7
:100558008285888B8E9194989B9EA2A5A9ADB1B4F3
:10056800B8BDC1C5C9CED2D7DBE0E5EAEFF5FAFFE1
:02057800010080
:00000001FF
